{
  "contractName": "Voting",
  "abi": [
    {
      "inputs": [],
      "stateMutability": "nonpayable",
      "type": "constructor"
    },
    {
      "anonymous": false,
      "inputs": [
        {
          "indexed": true,
          "internalType": "uint256",
          "name": "candidateId",
          "type": "uint256"
        }
      ],
      "name": "VotedEvent",
      "type": "event"
    },
    {
      "inputs": [
        {
          "internalType": "uint256",
          "name": "",
          "type": "uint256"
        }
      ],
      "name": "candidates",
      "outputs": [
        {
          "internalType": "uint256",
          "name": "id",
          "type": "uint256"
        },
        {
          "internalType": "string",
          "name": "name",
          "type": "string"
        },
        {
          "internalType": "uint256",
          "name": "voteCount",
          "type": "uint256"
        }
      ],
      "stateMutability": "view",
      "type": "function",
      "constant": true
    },
    {
      "inputs": [],
      "name": "candidatesCount",
      "outputs": [
        {
          "internalType": "uint256",
          "name": "",
          "type": "uint256"
        }
      ],
      "stateMutability": "view",
      "type": "function",
      "constant": true
    },
    {
      "inputs": [
        {
          "internalType": "address",
          "name": "",
          "type": "address"
        }
      ],
      "name": "voters",
      "outputs": [
        {
          "internalType": "bool",
          "name": "",
          "type": "bool"
        }
      ],
      "stateMutability": "view",
      "type": "function",
      "constant": true
    },
    {
      "inputs": [
        {
          "internalType": "string",
          "name": "_name",
          "type": "string"
        }
      ],
      "name": "addCandidate",
      "outputs": [],
      "stateMutability": "nonpayable",
      "type": "function"
    },
    {
      "inputs": [
        {
          "internalType": "uint256",
          "name": "_candidateId",
          "type": "uint256"
        }
      ],
      "name": "vote",
      "outputs": [],
      "stateMutability": "nonpayable",
      "type": "function"
    },
    {
      "inputs": [
        {
          "internalType": "uint256",
          "name": "_candidateId",
          "type": "uint256"
        }
      ],
      "name": "getCandidate",
      "outputs": [
        {
          "internalType": "uint256",
          "name": "id",
          "type": "uint256"
        },
        {
          "internalType": "string",
          "name": "name",
          "type": "string"
        },
        {
          "internalType": "uint256",
          "name": "voteCount",
          "type": "uint256"
        }
      ],
      "stateMutability": "view",
      "type": "function",
      "constant": true
    },
    {
      "inputs": [],
      "name": "getCandidatesCount",
      "outputs": [
        {
          "internalType": "uint256",
          "name": "",
          "type": "uint256"
        }
      ],
      "stateMutability": "view",
      "type": "function",
      "constant": true
    },
    {
      "inputs": [],
      "name": "getTotalVotes",
      "outputs": [
        {
          "internalType": "uint256",
          "name": "totalVotes",
          "type": "uint256"
        }
      ],
      "stateMutability": "view",
      "type": "function",
      "constant": true
    }
  ],
  "bytecode": "0x60806040523480156200001157600080fd5b50620000586040518060400160405280600781526020017f50415254592041000000000000000000000000000000000000000000000000008152506200013060201b60201c565b6200009e6040518060400160405280600781526020017f50415254592042000000000000000000000000000000000000000000000000008152506200013060201b60201c565b620000e46040518060400160405280600781526020017f50415254592043000000000000000000000000000000000000000000000000008152506200013060201b60201c565b6200012a6040518060400160405280600781526020017f50415254592044000000000000000000000000000000000000000000000000008152506200013060201b60201c565b62000351565b600260008154809291906200014590620002a5565b91905055506040518060600160405280600254815260200182815260200160008152506000806002548152602001908152602001600020600082015181600001556020820151816001019080519060200190620001a4929190620001b5565b506040820151816002015590505050565b828054620001c3906200026f565b90600052602060002090601f016020900481019282620001e7576000855562000233565b82601f106200020257805160ff191683800117855562000233565b8280016001018555821562000233579182015b828111156200023257825182559160200191906001019062000215565b5b50905062000242919062000246565b5090565b5b808211156200026157600081600090555060010162000247565b5090565b6000819050919050565b600060028204905060018216806200028857607f821691505b602082108114156200029f576200029e62000322565b5b50919050565b6000620002b28262000265565b91507fffffffffffffffffffffffffffffffffffffffffffffffffffffffffffffffff821415620002e857620002e7620002f3565b5b600182019050919050565b7f4e487b7100000000000000000000000000000000000000000000000000000000600052601160045260246000fd5b7f4e487b7100000000000000000000000000000000000000000000000000000000600052602260045260246000fd5b610a6980620003616000396000f3fe608060405234801561001057600080fd5b50600436106100885760003560e01c8063462e91ec1161005b578063462e91ec1461012b5780639a0e7d6614610147578063a3ec138d14610165578063bb9aa28f1461019557610088565b80630121b93f1461008d5780632d35a8a2146100a95780633477ee2e146100c757806335b8e820146100f9575b600080fd5b6100a760048036038101906100a2919061069b565b6101b3565b005b6100b1610265565b6040516100be9190610736565b60405180910390f35b6100e160048036038101906100dc919061069b565b61026b565b6040516100f093929190610751565b60405180910390f35b610113600480360381019061010e919061069b565b61031d565b60405161012293929190610751565b60405180910390f35b6101456004803603810190610140919061065a565b610406565b005b61014f610487565b60405161015c9190610736565b60405180910390f35b61017f600480360381019061017a9190610631565b6104d2565b60405161018c919061071b565b60405180910390f35b61019d6104f2565b6040516101aa9190610736565b60405180910390f35b60018060003373ffffffffffffffffffffffffffffffffffffffff1673ffffffffffffffffffffffffffffffffffffffff16815260200190815260200160002060006101000a81548160ff02191690831515021790555060008082815260200190815260200160002060020160008154809291906102309061091e565b9190505550807fe447c5464cb203c1da94b4db8588d3cbf313ce4a489122f6b88e87f465b2810e60405160405180910390a250565b60025481565b6000602052806000526040600020600091509050806000015490806001018054610294906108ec565b80601f01602080910402602001604051908101604052809291908181526020018280546102c0906108ec565b801561030d5780601f106102e25761010080835404028352916020019161030d565b820191906000526020600020905b8154815290600101906020018083116102f057829003601f168201915b5050505050908060020154905083565b600060606000806000808681526020019081526020016000206040518060600160405290816000820154815260200160018201805461035b906108ec565b80601f0160208091040260200160405190810160405280929190818152602001828054610387906108ec565b80156103d45780601f106103a9576101008083540402835291602001916103d4565b820191906000526020600020905b8154815290600101906020018083116103b757829003601f168201915b505050505081526020016002820154815250509050806000015181602001518260400151935093509350509193909250565b600260008154809291906104199061091e565b919050555060405180606001604052806002548152602001828152602001600081525060008060025481526020019081526020016000206000820151816000015560208201518160010190805190602001906104769291906104fc565b506040820151816002015590505050565b600080600190505b60025481116104ce5760008082815260200190815260200160002060020154826104b9919061080c565b915080806104c69061091e565b91505061048f565b5090565b60016020528060005260406000206000915054906101000a900460ff1681565b6000600254905090565b828054610508906108ec565b90600052602060002090601f01602090048101928261052a5760008555610571565b82601f1061054357805160ff1916838001178555610571565b82800160010185558215610571579182015b82811115610570578251825591602001919060010190610555565b5b50905061057e9190610582565b5090565b5b8082111561059b576000816000905550600101610583565b5090565b60006105b26105ad846107c0565b61078f565b9050828152602081018484840111156105ca57600080fd5b6105d58482856108aa565b509392505050565b6000813590506105ec81610a05565b92915050565b600082601f83011261060357600080fd5b813561061384826020860161059f565b91505092915050565b60008135905061062b81610a1c565b92915050565b60006020828403121561064357600080fd5b6000610651848285016105dd565b91505092915050565b60006020828403121561066c57600080fd5b600082013567ffffffffffffffff81111561068657600080fd5b610692848285016105f2565b91505092915050565b6000602082840312156106ad57600080fd5b60006106bb8482850161061c565b91505092915050565b6106cd81610874565b82525050565b60006106de826107f0565b6106e881856107fb565b93506106f88185602086016108b9565b610701816109f4565b840191505092915050565b610715816108a0565b82525050565b600060208201905061073060008301846106c4565b92915050565b600060208201905061074b600083018461070c565b92915050565b6000606082019050610766600083018661070c565b818103602083015261077881856106d3565b9050610787604083018461070c565b949350505050565b6000604051905081810181811067ffffffffffffffff821117156107b6576107b56109c5565b5b8060405250919050565b600067ffffffffffffffff8211156107db576107da6109c5565b5b601f19601f8301169050602081019050919050565b600081519050919050565b600082825260208201905092915050565b6000610817826108a0565b9150610822836108a0565b9250827fffffffffffffffffffffffffffffffffffffffffffffffffffffffffffffffff0382111561085757610856610967565b5b828201905092915050565b600061086d82610880565b9050919050565b60008115159050919050565b600073ffffffffffffffffffffffffffffffffffffffff82169050919050565b6000819050919050565b82818337600083830152505050565b60005b838110156108d75780820151818401526020810190506108bc565b838111156108e6576000848401525b50505050565b6000600282049050600182168061090457607f821691505b6020821081141561091857610917610996565b5b50919050565b6000610929826108a0565b91507fffffffffffffffffffffffffffffffffffffffffffffffffffffffffffffffff82141561095c5761095b610967565b5b600182019050919050565b7f4e487b7100000000000000000000000000000000000000000000000000000000600052601160045260246000fd5b7f4e487b7100000000000000000000000000000000000000000000000000000000600052602260045260246000fd5b7f4e487b7100000000000000000000000000000000000000000000000000000000600052604160045260246000fd5b6000601f19601f8301169050919050565b610a0e81610862565b8114610a1957600080fd5b50565b610a25816108a0565b8114610a3057600080fd5b5056fea2646970667358221220a84fd74da0947c727715dd279687a5d92dd4a7a32781f550c429cbd4c326804764736f6c63430008000033",
  "immutableReferences": {},
  "source": "// SPDX-License-Identifier: MIT\r\npragma solidity ^0.8.0;\r\n\r\ncontract Voting {\r\n    event VotedEvent(uint256 indexed candidateId);\r\n\r\n    struct Candidate {\r\n        uint256 id;\r\n        string name;\r\n        uint256 voteCount;\r\n    }\r\n\r\n    mapping(uint256 => Candidate) public candidates;\r\n    mapping(address => bool) public voters;\r\n    uint256 public candidatesCount;\r\n\r\n    constructor() {\r\n        addCandidate(\"PARTY A\");\r\n        addCandidate(\"PARTY B\");\r\n        addCandidate(\"PARTY C\");\r\n        addCandidate(\"PARTY D\");\r\n    }\r\n\r\n    function addCandidate(string memory _name) public {\r\n        candidatesCount++;\r\n        candidates[candidatesCount] = Candidate(candidatesCount, _name, 0);\r\n    }\r\n\r\n    function vote(uint256 _candidateId) public {\r\n\r\n        voters[msg.sender] = true;\r\n        candidates[_candidateId].voteCount++;\r\n        emit VotedEvent(_candidateId);\r\n    }\r\n\r\n    function getCandidate(uint256 _candidateId) public view returns (uint256 id, string memory name, uint256 voteCount) {\r\n        Candidate memory candidate = candidates[_candidateId];\r\n        return (candidate.id, candidate.name, candidate.voteCount);\r\n    }\r\n\r\n    function getCandidatesCount() public view returns (uint256) {\r\n        return candidatesCount;\r\n    }\r\n\r\n    function getTotalVotes() public view returns (uint256 totalVotes) {\r\n        for (uint256 i = 1; i <= candidatesCount; i++) {\r\n            totalVotes += candidates[i].voteCount;\r\n        }\r\n    }\r\n}\r\n",
  "sourcePath": "D:\\votingusingblockchain\\votingapp\\contracts\\Voting.sol",
  "compiler": {
    "name": "solc",
    "version": "0.8.0+commit.c7dfd78e.Emscripten.clang"
  },
  "schemaVersion": "3.4.16",
  "updatedAt": "2024-10-12T14:03:15.599Z",
  "networkType": "ethereum",
  "devdoc": {
    "kind": "dev",
    "methods": {},
    "version": 1
  },
  "userdoc": {
    "kind": "user",
    "methods": {},
    "version": 1
  }
}