{
  "contractName": "Voting",
  "abi": [
    {
      "inputs": [
        {
          "internalType": "uint256",
          "name": "",
          "type": "uint256"
        }
      ],
      "name": "candidates",
      "outputs": [
        {
          "internalType": "string",
          "name": "",
          "type": "string"
        }
      ],
      "stateMutability": "view",
      "type": "function",
      "constant": true
    },
    {
      "inputs": [
        {
          "internalType": "address",
          "name": "",
          "type": "address"
        }
      ],
      "name": "hasVoted",
      "outputs": [
        {
          "internalType": "bool",
          "name": "",
          "type": "bool"
        }
      ],
      "stateMutability": "view",
      "type": "function",
      "constant": true
    },
    {
      "inputs": [
        {
          "internalType": "uint256",
          "name": "",
          "type": "uint256"
        }
      ],
      "name": "votes",
      "outputs": [
        {
          "internalType": "uint256",
          "name": "",
          "type": "uint256"
        }
      ],
      "stateMutability": "view",
      "type": "function",
      "constant": true
    },
    {
      "inputs": [
        {
          "internalType": "uint256",
          "name": "candidateId",
          "type": "uint256"
        }
      ],
      "name": "vote",
      "outputs": [],
      "stateMutability": "nonpayable",
      "type": "function"
    },
    {
      "inputs": [
        {
          "internalType": "uint256",
          "name": "candidateId",
          "type": "uint256"
        }
      ],
      "name": "getVotes",
      "outputs": [
        {
          "internalType": "uint256",
          "name": "",
          "type": "uint256"
        }
      ],
      "stateMutability": "view",
      "type": "function",
      "constant": true
    },
    {
      "inputs": [],
      "name": "getCandidates",
      "outputs": [
        {
          "internalType": "string[]",
          "name": "",
          "type": "string[]"
        }
      ],
      "stateMutability": "view",
      "type": "function",
      "constant": true
    }
  ],
  "bytecode": "0x608060405260405180608001604052806040518060400160405280600581526020017f4170706c6500000000000000000000000000000000000000000000000000000081525081526020016040518060400160405280600681526020017f42616e616e61000000000000000000000000000000000000000000000000000081525081526020016040518060400160405280600681526020017f436865727279000000000000000000000000000000000000000000000000000081525081526020016040518060400160405280600481526020017f446174650000000000000000000000000000000000000000000000000000000081525081525060029060046200010b92919062000120565b503480156200011957600080fd5b506200030a565b82805482825590600052602060002090810192821562000174579160200282015b82811115620001735782518290805190602001906200016292919062000187565b509160200191906001019062000141565b5b50905062000183919062000218565b5090565b8280546200019590620002a5565b90600052602060002090601f016020900481019282620001b9576000855562000205565b82601f10620001d457805160ff191683800117855562000205565b8280016001018555821562000205579182015b8281111562000204578251825591602001919060010190620001e7565b5b50905062000214919062000240565b5090565b5b808211156200023c57600081816200023291906200025f565b5060010162000219565b5090565b5b808211156200025b57600081600090555060010162000241565b5090565b5080546200026d90620002a5565b6000825580601f10620002815750620002a2565b601f016020900490600052602060002090810190620002a1919062000240565b5b50565b60006002820490506001821680620002be57607f821691505b60208210811415620002d557620002d4620002db565b5b50919050565b7f4e487b7100000000000000000000000000000000000000000000000000000000600052602260045260246000fd5b6109d5806200031a6000396000f3fe608060405234801561001057600080fd5b50600436106100625760003560e01c80630121b93f1461006757806306a49fce1461008357806309eef43e146100a15780633477ee2e146100d15780635df8133014610101578063ff98109914610131575b600080fd5b610081600480360381019061007c919061052a565b610161565b005b61008b6102b7565b60405161009891906106ec565b60405180910390f35b6100bb60048036038101906100b69190610501565b610390565b6040516100c8919061070e565b60405180910390f35b6100eb60048036038101906100e6919061052a565b6103b0565b6040516100f89190610729565b60405180910390f35b61011b6004803603810190610116919061052a565b61045c565b604051610128919061078b565b60405180910390f35b61014b6004803603810190610146919061052a565b610474565b604051610158919061078b565b60405180910390f35b600160003373ffffffffffffffffffffffffffffffffffffffff1673ffffffffffffffffffffffffffffffffffffffff16815260200190815260200160002060009054906101000a900460ff16156101ee576040517f08c379a00000000000000000000000000000000000000000000000000000000081526004016101e59061076b565b60405180910390fd5b6002805490508110610235576040517f08c379a000000000000000000000000000000000000000000000000000000000815260040161022c9061074b565b60405180910390fd5b6000808281526020019081526020016000206000815480929190610258906108b9565b919050555060018060003373ffffffffffffffffffffffffffffffffffffffff1673ffffffffffffffffffffffffffffffffffffffff16815260200190815260200160002060006101000a81548160ff02191690831515021790555050565b60606002805480602002602001604051908101604052809291908181526020016000905b828210156103875783829060005260206000200180546102fa90610887565b80601f016020809104026020016040519081016040528092919081815260200182805461032690610887565b80156103735780601f1061034857610100808354040283529160200191610373565b820191906000526020600020905b81548152906001019060200180831161035657829003601f168201915b5050505050815260200190600101906102db565b50505050905090565b60016020528060005260406000206000915054906101000a900460ff1681565b600281815481106103c057600080fd5b9060005260206000200160009150905080546103db90610887565b80601f016020809104026020016040519081016040528092919081815260200182805461040790610887565b80156104545780601f1061042957610100808354040283529160200191610454565b820191906000526020600020905b81548152906001019060200180831161043757829003601f168201915b505050505081565b60006020528060005260406000206000915090505481565b600060028054905082106104bd576040517f08c379a00000000000000000000000000000000000000000000000000000000081526004016104b49061074b565b60405180910390fd5b600080838152602001908152602001600020549050919050565b6000813590506104e681610971565b92915050565b6000813590506104fb81610988565b92915050565b60006020828403121561051357600080fd5b6000610521848285016104d7565b91505092915050565b60006020828403121561053c57600080fd5b600061054a848285016104ec565b91505092915050565b600061055f83836105eb565b905092915050565b6000610572826107b6565b61057c81856107d9565b93508360208202850161058e856107a6565b8060005b858110156105ca57848403895281516105ab8582610553565b94506105b6836107cc565b925060208a01995050600181019050610592565b50829750879550505050505092915050565b6105e58161081e565b82525050565b60006105f6826107c1565b61060081856107ea565b9350610610818560208601610854565b61061981610960565b840191505092915050565b600061062f826107c1565b61063981856107fb565b9350610649818560208601610854565b61065281610960565b840191505092915050565b600061066a6011836107fb565b91507f496e76616c69642063616e6469646174650000000000000000000000000000006000830152602082019050919050565b60006106aa6016836107fb565b91507f596f75206861766520616c726561647920766f746564000000000000000000006000830152602082019050919050565b6106e68161084a565b82525050565b600060208201905081810360008301526107068184610567565b905092915050565b600060208201905061072360008301846105dc565b92915050565b600060208201905081810360008301526107438184610624565b905092915050565b600060208201905081810360008301526107648161065d565b9050919050565b600060208201905081810360008301526107848161069d565b9050919050565b60006020820190506107a060008301846106dd565b92915050565b6000819050602082019050919050565b600081519050919050565b600081519050919050565b6000602082019050919050565b600082825260208201905092915050565b600082825260208201905092915050565b600082825260208201905092915050565b60006108178261082a565b9050919050565b60008115159050919050565b600073ffffffffffffffffffffffffffffffffffffffff82169050919050565b6000819050919050565b60005b83811015610872578082015181840152602081019050610857565b83811115610881576000848401525b50505050565b6000600282049050600182168061089f57607f821691505b602082108114156108b3576108b2610931565b5b50919050565b60006108c48261084a565b91507fffffffffffffffffffffffffffffffffffffffffffffffffffffffffffffffff8214156108f7576108f6610902565b5b600182019050919050565b7f4e487b7100000000000000000000000000000000000000000000000000000000600052601160045260246000fd5b7f4e487b7100000000000000000000000000000000000000000000000000000000600052602260045260246000fd5b6000601f19601f8301169050919050565b61097a8161080c565b811461098557600080fd5b50565b6109918161084a565b811461099c57600080fd5b5056fea2646970667358221220b83ad148573eafa5445ed821b8f1095c999c9574525b61d9cd6d55020928d00364736f6c63430008000033",
  "immutableReferences": {},
  "source": "// SPDX-License-Identifier: MIT\r\npragma solidity ^0.8.0;\r\n\r\ncontract Voting {\r\n    mapping(uint256 => uint256) public votes;\r\n    mapping(address => bool) public hasVoted;\r\n\r\n    string[] public candidates = [\"Apple\", \"Banana\", \"Cherry\", \"Date\"];\r\n\r\n    function vote(uint256 candidateId) public {\r\n        require(!hasVoted[msg.sender], \"You have already voted\");\r\n        require(candidateId < candidates.length, \"Invalid candidate\");\r\n\r\n        votes[candidateId]++;\r\n        hasVoted[msg.sender] = true;\r\n    }\r\n\r\n    function getVotes(uint256 candidateId) public view returns (uint256) {\r\n        require(candidateId < candidates.length, \"Invalid candidate\");\r\n        return votes[candidateId];\r\n    }\r\n\r\n    function getCandidates() public view returns (string[] memory) {\r\n        return candidates;\r\n    }\r\n}\r\n",
  "sourcePath": "D:\\votingusingblockchain\\votingapp\\contracts\\Voting.sol",
  "compiler": {
    "name": "solc",
    "version": "0.8.0+commit.c7dfd78e.Emscripten.clang"
  },
  "schemaVersion": "3.4.16",
  "updatedAt": "2024-08-08T05:53:39.552Z",
  "networkType": "ethereum",
  "devdoc": {
    "kind": "dev",
    "methods": {},
    "version": 1
  },
  "userdoc": {
    "kind": "user",
    "methods": {},
    "version": 1
  }
}