{
  "contractName": "Voting",
  "abi": [
    {
      "inputs": [],
      "stateMutability": "nonpayable",
      "type": "constructor"
    },
    {
      "anonymous": false,
      "inputs": [
        {
          "indexed": true,
          "internalType": "uint256",
          "name": "candidateId",
          "type": "uint256"
        }
      ],
      "name": "VotedEvent",
      "type": "event"
    },
    {
      "inputs": [
        {
          "internalType": "uint256",
          "name": "",
          "type": "uint256"
        }
      ],
      "name": "candidates",
      "outputs": [
        {
          "internalType": "uint256",
          "name": "id",
          "type": "uint256"
        },
        {
          "internalType": "string",
          "name": "name",
          "type": "string"
        },
        {
          "internalType": "uint256",
          "name": "voteCount",
          "type": "uint256"
        }
      ],
      "stateMutability": "view",
      "type": "function",
      "constant": true
    },
    {
      "inputs": [],
      "name": "candidatesCount",
      "outputs": [
        {
          "internalType": "uint256",
          "name": "",
          "type": "uint256"
        }
      ],
      "stateMutability": "view",
      "type": "function",
      "constant": true
    },
    {
      "inputs": [
        {
          "internalType": "address",
          "name": "",
          "type": "address"
        }
      ],
      "name": "voters",
      "outputs": [
        {
          "internalType": "bool",
          "name": "",
          "type": "bool"
        }
      ],
      "stateMutability": "view",
      "type": "function",
      "constant": true
    },
    {
      "inputs": [
        {
          "internalType": "string",
          "name": "_name",
          "type": "string"
        }
      ],
      "name": "addCandidate",
      "outputs": [],
      "stateMutability": "nonpayable",
      "type": "function"
    },
    {
      "inputs": [
        {
          "internalType": "uint256",
          "name": "_candidateId",
          "type": "uint256"
        }
      ],
      "name": "vote",
      "outputs": [],
      "stateMutability": "nonpayable",
      "type": "function"
    },
    {
      "inputs": [
        {
          "internalType": "uint256",
          "name": "_candidateId",
          "type": "uint256"
        }
      ],
      "name": "getCandidate",
      "outputs": [
        {
          "internalType": "uint256",
          "name": "id",
          "type": "uint256"
        },
        {
          "internalType": "string",
          "name": "name",
          "type": "string"
        },
        {
          "internalType": "uint256",
          "name": "voteCount",
          "type": "uint256"
        }
      ],
      "stateMutability": "view",
      "type": "function",
      "constant": true
    }
  ],
  "bytecode": "0x60806040523480156200001157600080fd5b50620000586040518060400160405280600581526020017f416c696365000000000000000000000000000000000000000000000000000000815250620000a460201b60201c565b6200009e6040518060400160405280600381526020017f426f620000000000000000000000000000000000000000000000000000000000815250620000a460201b60201c565b620002c5565b60026000815480929190620000b99062000219565b919050555060405180606001604052806002548152602001828152602001600081525060008060025481526020019081526020016000206000820151816000015560208201518160010190805190602001906200011892919062000129565b506040820151816002015590505050565b8280546200013790620001e3565b90600052602060002090601f0160209004810192826200015b5760008555620001a7565b82601f106200017657805160ff1916838001178555620001a7565b82800160010185558215620001a7579182015b82811115620001a657825182559160200191906001019062000189565b5b509050620001b69190620001ba565b5090565b5b80821115620001d5576000816000905550600101620001bb565b5090565b6000819050919050565b60006002820490506001821680620001fc57607f821691505b6020821081141562000213576200021262000296565b5b50919050565b60006200022682620001d9565b91507fffffffffffffffffffffffffffffffffffffffffffffffffffffffffffffffff8214156200025c576200025b62000267565b5b600182019050919050565b7f4e487b7100000000000000000000000000000000000000000000000000000000600052601160045260246000fd5b7f4e487b7100000000000000000000000000000000000000000000000000000000600052602260045260246000fd5b610afa80620002d56000396000f3fe608060405234801561001057600080fd5b50600436106100625760003560e01c80630121b93f146100675780632d35a8a2146100835780633477ee2e146100a157806335b8e820146100d3578063462e91ec14610105578063a3ec138d14610121575b600080fd5b610081600480360381019061007c91906106c2565b610151565b005b61008b6102e1565b604051610098919061081d565b60405180910390f35b6100bb60048036038101906100b691906106c2565b6102e7565b6040516100ca93929190610838565b60405180910390f35b6100ed60048036038101906100e891906106c2565b610399565b6040516100fc93929190610838565b60405180910390f35b61011f600480360381019061011a9190610681565b610482565b005b61013b60048036038101906101369190610658565b610503565b60405161014891906107c2565b60405180910390f35b600160003373ffffffffffffffffffffffffffffffffffffffff1673ffffffffffffffffffffffffffffffffffffffff16815260200190815260200160002060009054906101000a900460ff16156101de576040517f08c379a00000000000000000000000000000000000000000000000000000000081526004016101d5906107dd565b60405180910390fd5b6000811180156101f057506002548111155b61022f576040517f08c379a0000000000000000000000000000000000000000000000000000000008152600401610226906107fd565b60405180910390fd5b60018060003373ffffffffffffffffffffffffffffffffffffffff1673ffffffffffffffffffffffffffffffffffffffff16815260200190815260200160002060006101000a81548160ff02191690831515021790555060008082815260200190815260200160002060020160008154809291906102ac906109af565b9190505550807fe447c5464cb203c1da94b4db8588d3cbf313ce4a489122f6b88e87f465b2810e60405160405180910390a250565b60025481565b60006020528060005260406000206000915090508060000154908060010180546103109061097d565b80601f016020809104026020016040519081016040528092919081815260200182805461033c9061097d565b80156103895780601f1061035e57610100808354040283529160200191610389565b820191906000526020600020905b81548152906001019060200180831161036c57829003601f168201915b5050505050908060020154905083565b60006060600080600080868152602001908152602001600020604051806060016040529081600082015481526020016001820180546103d79061097d565b80601f01602080910402602001604051908101604052809291908181526020018280546104039061097d565b80156104505780601f1061042557610100808354040283529160200191610450565b820191906000526020600020905b81548152906001019060200180831161043357829003601f168201915b505050505081526020016002820154815250509050806000015181602001518260400151935093509350509193909250565b60026000815480929190610495906109af565b919050555060405180606001604052806002548152602001828152602001600081525060008060025481526020019081526020016000206000820151816000015560208201518160010190805190602001906104f2929190610523565b506040820151816002015590505050565b60016020528060005260406000206000915054906101000a900460ff1681565b82805461052f9061097d565b90600052602060002090601f0160209004810192826105515760008555610598565b82601f1061056a57805160ff1916838001178555610598565b82800160010185558215610598579182015b8281111561059757825182559160200191906001019061057c565b5b5090506105a591906105a9565b5090565b5b808211156105c25760008160009055506001016105aa565b5090565b60006105d96105d4846108a7565b610876565b9050828152602081018484840111156105f157600080fd5b6105fc84828561093b565b509392505050565b60008135905061061381610a96565b92915050565b600082601f83011261062a57600080fd5b813561063a8482602086016105c6565b91505092915050565b60008135905061065281610aad565b92915050565b60006020828403121561066a57600080fd5b600061067884828501610604565b91505092915050565b60006020828403121561069357600080fd5b600082013567ffffffffffffffff8111156106ad57600080fd5b6106b984828501610619565b91505092915050565b6000602082840312156106d457600080fd5b60006106e284828501610643565b91505092915050565b6106f481610905565b82525050565b6000610705826108d7565b61070f81856108e2565b935061071f81856020860161094a565b61072881610a85565b840191505092915050565b60006107406017836108e2565b91507f596f75206861766520616c726561647920766f7465642e0000000000000000006000830152602082019050919050565b60006107806015836108e2565b91507f496e76616c69642063616e6469646174652049442e00000000000000000000006000830152602082019050919050565b6107bc81610931565b82525050565b60006020820190506107d760008301846106eb565b92915050565b600060208201905081810360008301526107f681610733565b9050919050565b6000602082019050818103600083015261081681610773565b9050919050565b600060208201905061083260008301846107b3565b92915050565b600060608201905061084d60008301866107b3565b818103602083015261085f81856106fa565b905061086e60408301846107b3565b949350505050565b6000604051905081810181811067ffffffffffffffff8211171561089d5761089c610a56565b5b8060405250919050565b600067ffffffffffffffff8211156108c2576108c1610a56565b5b601f19601f8301169050602081019050919050565b600081519050919050565b600082825260208201905092915050565b60006108fe82610911565b9050919050565b60008115159050919050565b600073ffffffffffffffffffffffffffffffffffffffff82169050919050565b6000819050919050565b82818337600083830152505050565b60005b8381101561096857808201518184015260208101905061094d565b83811115610977576000848401525b50505050565b6000600282049050600182168061099557607f821691505b602082108114156109a9576109a8610a27565b5b50919050565b60006109ba82610931565b91507fffffffffffffffffffffffffffffffffffffffffffffffffffffffffffffffff8214156109ed576109ec6109f8565b5b600182019050919050565b7f4e487b7100000000000000000000000000000000000000000000000000000000600052601160045260246000fd5b7f4e487b7100000000000000000000000000000000000000000000000000000000600052602260045260246000fd5b7f4e487b7100000000000000000000000000000000000000000000000000000000600052604160045260246000fd5b6000601f19601f8301169050919050565b610a9f816108f3565b8114610aaa57600080fd5b50565b610ab681610931565b8114610ac157600080fd5b5056fea2646970667358221220f4ac6544184359eb9da2bbb704ded2df8750fc23caef9007ffeea348d891cd8664736f6c63430008000033",
  "immutableReferences": {},
  "source": "// SPDX-License-Identifier: MIT\r\npragma solidity ^0.8.0;\r\n\r\ncontract Voting {\r\n    // Event to be emitted when a vote is cast\r\n    event VotedEvent(uint256 indexed candidateId);\r\n\r\n    // Structure to store candidate details\r\n    struct Candidate {\r\n        uint256 id;\r\n        string name;\r\n        uint256 voteCount;\r\n    }\r\n\r\n    // Mapping of candidate ID to Candidate details\r\n    mapping(uint256 => Candidate) public candidates;\r\n    \r\n    // Mapping of voter addresses to their voting status\r\n    mapping(address => bool) public voters;\r\n    \r\n    // Total number of candidates\r\n    uint256 public candidatesCount;\r\n\r\n    constructor() {\r\n        // Initial candidates can be added in the constructor if needed\r\n        addCandidate(\"Alice\");\r\n        addCandidate(\"Bob\");\r\n    }\r\n\r\n    // Function to add a new candidate\r\n    function addCandidate(string memory _name) public {\r\n        candidatesCount++;\r\n        candidates[candidatesCount] = Candidate(candidatesCount, _name, 0);\r\n    }\r\n\r\n    // Function to vote for a candidate\r\n    function vote(uint256 _candidateId) public {\r\n        require(!voters[msg.sender], \"You have already voted.\");\r\n        require(_candidateId > 0 && _candidateId <= candidatesCount, \"Invalid candidate ID.\");\r\n\r\n        // Mark the voter as having voted\r\n        voters[msg.sender] = true;\r\n\r\n        // Increase the vote count for the chosen candidate\r\n        candidates[_candidateId].voteCount++;\r\n\r\n        // Emit the VotedEvent\r\n        emit VotedEvent(_candidateId);\r\n    }\r\n\r\n    // Function to get candidate details\r\n    function getCandidate(uint256 _candidateId) public view returns (uint256 id, string memory name, uint256 voteCount) {\r\n        Candidate memory candidate = candidates[_candidateId];\r\n        return (candidate.id, candidate.name, candidate.voteCount);\r\n    }\r\n}\r\n",
  "sourcePath": "D:\\votingusingblockchain\\votingapp\\contracts\\Voting.sol",
  "compiler": {
    "name": "solc",
    "version": "0.8.0+commit.c7dfd78e.Emscripten.clang"
  },
  "schemaVersion": "3.4.16",
  "updatedAt": "2024-08-10T14:43:27.829Z",
  "networkType": "ethereum",
  "devdoc": {
    "kind": "dev",
    "methods": {},
    "version": 1
  },
  "userdoc": {
    "kind": "user",
    "methods": {},
    "version": 1
  }
}